{
    "_format": "hh-sol-artifact-1",
    "contractName": "HouseAuction",
    "sourceName": "contracts/HouseAuction.sol",
    "abi": [
        {
            "inputs": [],
            "stateMutability": "nonpayable",
            "type": "constructor"
        },
        {
            "anonymous": false,
            "inputs": [
                {
                    "indexed": false,
                    "internalType": "uint256",
                    "name": "id",
                    "type": "uint256"
                },
                {
                    "indexed": false,
                    "internalType": "address",
                    "name": "winner",
                    "type": "address"
                },
                {
                    "indexed": false,
                    "internalType": "uint256",
                    "name": "amount",
                    "type": "uint256"
                }
            ],
            "name": "AuctionEnded",
            "type": "event"
        },
        {
            "anonymous": false,
            "inputs": [
                {
                    "indexed": false,
                    "internalType": "uint256",
                    "name": "id",
                    "type": "uint256"
                },
                {
                    "indexed": false,
                    "internalType": "bool",
                    "name": "isActive",
                    "type": "bool"
                }
            ],
            "name": "AuctionToggled",
            "type": "event"
        },
        {
            "anonymous": false,
            "inputs": [
                {
                    "indexed": false,
                    "internalType": "uint256",
                    "name": "houseId",
                    "type": "uint256"
                },
                {
                    "indexed": false,
                    "internalType": "address",
                    "name": "bidder",
                    "type": "address"
                },
                {
                    "indexed": false,
                    "internalType": "uint256",
                    "name": "amount",
                    "type": "uint256"
                }
            ],
            "name": "BidPlaced",
            "type": "event"
        },
        {
            "anonymous": false,
            "inputs": [
                {
                    "indexed": false,
                    "internalType": "uint256",
                    "name": "id",
                    "type": "uint256"
                }
            ],
            "name": "HouseCreated",
            "type": "event"
        },
        {
            "anonymous": false,
            "inputs": [
                {
                    "indexed": false,
                    "internalType": "uint256",
                    "name": "id",
                    "type": "uint256"
                }
            ],
            "name": "HouseDeleted",
            "type": "event"
        },
        {
            "anonymous": false,
            "inputs": [
                {
                    "indexed": false,
                    "internalType": "uint256",
                    "name": "id",
                    "type": "uint256"
                }
            ],
            "name": "HouseUpdated",
            "type": "event"
        },
        {
            "inputs": [
                {
                    "internalType": "string",
                    "name": "_title",
                    "type": "string"
                },
                {
                    "internalType": "string",
                    "name": "_description",
                    "type": "string"
                },
                {
                    "internalType": "uint256",
                    "name": "_startPrice",
                    "type": "uint256"
                },
                {
                    "internalType": "uint256",
                    "name": "_duration",
                    "type": "uint256"
                }
            ],
            "name": "addHouse",
            "outputs": [],
            "stateMutability": "nonpayable",
            "type": "function"
        },
        {
            "inputs": [],
            "name": "admin",
            "outputs": [
                {
                    "internalType": "address",
                    "name": "",
                    "type": "address"
                }
            ],
            "stateMutability": "view",
            "type": "function"
        },
        {
            "inputs": [
                {
                    "internalType": "uint256",
                    "name": "_id",
                    "type": "uint256"
                }
            ],
            "name": "deleteHouse",
            "outputs": [],
            "stateMutability": "nonpayable",
            "type": "function"
        },
        {
            "inputs": [
                {
                    "internalType": "uint256",
                    "name": "_id",
                    "type": "uint256"
                }
            ],
            "name": "endAuction",
            "outputs": [],
            "stateMutability": "nonpayable",
            "type": "function"
        },
        {
            "inputs": [
                {
                    "internalType": "uint256",
                    "name": "_id",
                    "type": "uint256"
                }
            ],
            "name": "getHouse",
            "outputs": [
                {
                    "components": [
                        {
                            "internalType": "uint256",
                            "name": "id",
                            "type": "uint256"
                        },
                        {
                            "internalType": "string",
                            "name": "title",
                            "type": "string"
                        },
                        {
                            "internalType": "string",
                            "name": "description",
                            "type": "string"
                        },
                        {
                            "internalType": "uint256",
                            "name": "startPrice",
                            "type": "uint256"
                        },
                        {
                            "internalType": "bool",
                            "name": "isActive",
                            "type": "bool"
                        },
                        {
                            "internalType": "bool",
                            "name": "isAuctionEnded",
                            "type": "bool"
                        },
                        {
                            "internalType": "address",
                            "name": "highestBidder",
                            "type": "address"
                        },
                        {
                            "internalType": "uint256",
                            "name": "highestBid",
                            "type": "uint256"
                        },
                        {
                            "internalType": "uint256",
                            "name": "startTime",
                            "type": "uint256"
                        },
                        {
                            "internalType": "uint256",
                            "name": "duration",
                            "type": "uint256"
                        }
                    ],
                    "internalType": "struct HouseAuction.House",
                    "name": "",
                    "type": "tuple"
                }
            ],
            "stateMutability": "view",
            "type": "function"
        },
        {
            "inputs": [],
            "name": "houseCounter",
            "outputs": [
                {
                    "internalType": "uint256",
                    "name": "",
                    "type": "uint256"
                }
            ],
            "stateMutability": "view",
            "type": "function"
        },
        {
            "inputs": [
                {
                    "internalType": "uint256",
                    "name": "",
                    "type": "uint256"
                }
            ],
            "name": "houses",
            "outputs": [
                {
                    "internalType": "uint256",
                    "name": "id",
                    "type": "uint256"
                },
                {
                    "internalType": "string",
                    "name": "title",
                    "type": "string"
                },
                {
                    "internalType": "string",
                    "name": "description",
                    "type": "string"
                },
                {
                    "internalType": "uint256",
                    "name": "startPrice",
                    "type": "uint256"
                },
                {
                    "internalType": "bool",
                    "name": "isActive",
                    "type": "bool"
                },
                {
                    "internalType": "bool",
                    "name": "isAuctionEnded",
                    "type": "bool"
                },
                {
                    "internalType": "address",
                    "name": "highestBidder",
                    "type": "address"
                },
                {
                    "internalType": "uint256",
                    "name": "highestBid",
                    "type": "uint256"
                },
                {
                    "internalType": "uint256",
                    "name": "startTime",
                    "type": "uint256"
                },
                {
                    "internalType": "uint256",
                    "name": "duration",
                    "type": "uint256"
                }
            ],
            "stateMutability": "view",
            "type": "function"
        },
        {
            "inputs": [
                {
                    "internalType": "uint256",
                    "name": "_id",
                    "type": "uint256"
                }
            ],
            "name": "placeBid",
            "outputs": [],
            "stateMutability": "payable",
            "type": "function"
        },
        {
            "inputs": [
                {
                    "internalType": "uint256",
                    "name": "_id",
                    "type": "uint256"
                }
            ],
            "name": "toggleAuctionStatus",
            "outputs": [],
            "stateMutability": "nonpayable",
            "type": "function"
        },
        {
            "inputs": [
                {
                    "internalType": "uint256",
                    "name": "_id",
                    "type": "uint256"
                },
                {
                    "internalType": "string",
                    "name": "_title",
                    "type": "string"
                },
                {
                    "internalType": "string",
                    "name": "_description",
                    "type": "string"
                },
                {
                    "internalType": "uint256",
                    "name": "_startPrice",
                    "type": "uint256"
                },
                {
                    "internalType": "uint256",
                    "name": "_duration",
                    "type": "uint256"
                }
            ],
            "name": "updateHouse",
            "outputs": [],
            "stateMutability": "nonpayable",
            "type": "function"
        },
        {
            "stateMutability": "payable",
            "type": "receive"
        }
    ],
    "bytecode": "0x608060405234801561001057600080fd5b50336000806101000a81548173ffffffffffffffffffffffffffffffffffffffff021916908373ffffffffffffffffffffffffffffffffffffffff16021790555061291b806100606000396000f3fe6080604052600436106100955760003560e01c8063aeda852f11610059578063aeda852f146101b0578063b9a2de3a146101f6578063bf5957ec1461021f578063cbb78b7a14610248578063f851a44014610271576100d5565b80633107c99d146100da5780633fc1514f146101175780634c9b56fd146101405780636d331047146101695780639979ef4514610194576100d5565b366100d5576040517f08c379a00000000000000000000000000000000000000000000000000000000081526004016100cc90611748565b60405180910390fd5b600080fd5b3480156100e657600080fd5b5061010160048036038101906100fc91906117b2565b61029c565b60405161010e91906119bb565b60405180910390f35b34801561012357600080fd5b5061013e600480360381019061013991906117b2565b610507565b005b34801561014c57600080fd5b50610167600480360381019061016291906117b2565b6106d5565b005b34801561017557600080fd5b5061017e61090f565b60405161018b91906119ec565b60405180910390f35b6101ae60048036038101906101a991906117b2565b610915565b005b3480156101bc57600080fd5b506101d760048036038101906101d291906117b2565b610c6d565b6040516101ed9a99989796959493929190611a5e565b60405180910390f35b34801561020257600080fd5b5061021d600480360381019061021891906117b2565b610e0b565b005b34801561022b57600080fd5b5061024660048036038101906102419190611c3d565b6110de565b005b34801561025457600080fd5b5061026f600480360381019061026a9190611cdc565b611436565b005b34801561027d57600080fd5b506102866115fd565b6040516102939190611d8f565b60405180910390f35b6102a4611621565b8160006002600083815260200190815260200160002060000154036102fe576040517f08c379a00000000000000000000000000000000000000000000000000000000081526004016102f590611df6565b60405180910390fd5b60026000848152602001908152602001600020604051806101400160405290816000820154815260200160018201805461033790611e45565b80601f016020809104026020016040519081016040528092919081815260200182805461036390611e45565b80156103b05780601f10610385576101008083540402835291602001916103b0565b820191906000526020600020905b81548152906001019060200180831161039357829003601f168201915b505050505081526020016002820180546103c990611e45565b80601f01602080910402602001604051908101604052809291908181526020018280546103f590611e45565b80156104425780601f1061041757610100808354040283529160200191610442565b820191906000526020600020905b81548152906001019060200180831161042557829003601f168201915b50505050508152602001600382015481526020016004820160009054906101000a900460ff161515151581526020016004820160019054906101000a900460ff161515151581526020016004820160029054906101000a900473ffffffffffffffffffffffffffffffffffffffff1673ffffffffffffffffffffffffffffffffffffffff1673ffffffffffffffffffffffffffffffffffffffff1681526020016005820154815260200160068201548152602001600782015481525050915050919050565b60008054906101000a900473ffffffffffffffffffffffffffffffffffffffff1673ffffffffffffffffffffffffffffffffffffffff163373ffffffffffffffffffffffffffffffffffffffff1614610595576040517f08c379a000000000000000000000000000000000000000000000000000000000815260040161058c90611ee8565b60405180910390fd5b8060006002600083815260200190815260200160002060000154036105ef576040517f08c379a00000000000000000000000000000000000000000000000000000000081526004016105e690611df6565b60405180910390fd5b60006002600084815260200190815260200160002090508060040160019054906101000a900460ff1615610658576040517f08c379a000000000000000000000000000000000000000000000000000000000815260040161064f90611f54565b60405180910390fd5b8060040160009054906101000a900460ff16158160040160006101000a81548160ff0219169083151502179055507fbf8ee19446f5eb969bd922f7d27434a792ccf5a3fb36c1754332919c5050df27838260040160009054906101000a900460ff166040516106c8929190611f74565b60405180910390a1505050565b60008054906101000a900473ffffffffffffffffffffffffffffffffffffffff1673ffffffffffffffffffffffffffffffffffffffff163373ffffffffffffffffffffffffffffffffffffffff1614610763576040517f08c379a000000000000000000000000000000000000000000000000000000000815260040161075a90611ee8565b60405180910390fd5b8060006002600083815260200190815260200160002060000154036107bd576040517f08c379a00000000000000000000000000000000000000000000000000000000081526004016107b490611df6565b60405180910390fd5b60006002600084815260200190815260200160002090508060040160019054906101000a900460ff1615610826576040517f08c379a000000000000000000000000000000000000000000000000000000000815260040161081d90611fe9565b60405180910390fd5b60026000848152602001908152602001600020600080820160009055600182016000610852919061168e565b600282016000610862919061168e565b60038201600090556004820160006101000a81549060ff02191690556004820160016101000a81549060ff02191690556004820160026101000a81549073ffffffffffffffffffffffffffffffffffffffff021916905560058201600090556006820160009055600782016000905550507f42d6bd8582ff4903adffffb6b80e9c2e797491805128ba3536d7af7fac259e058360405161090291906119ec565b60405180910390a1505050565b60015481565b8060006002600083815260200190815260200160002090506000816000015403610974576040517f08c379a000000000000000000000000000000000000000000000000000000000815260040161096b90611df6565b60405180910390fd5b8060040160009054906101000a900460ff166109c5576040517f08c379a00000000000000000000000000000000000000000000000000000000081526004016109bc90612055565b60405180910390fd5b8060040160019054906101000a900460ff1615610a17576040517f08c379a0000000000000000000000000000000000000000000000000000000008152600401610a0e906120c1565b60405180910390fd5b80600701548160060154610a2b9190612110565b421115610a6d576040517f08c379a0000000000000000000000000000000000000000000000000000000008152600401610a6490612190565b60405180910390fd5b600060026000858152602001908152602001600020905080600501543411610aca576040517f08c379a0000000000000000000000000000000000000000000000000000000008152600401610ac1906121fc565b60405180910390fd5b60008160040160029054906101000a900473ffffffffffffffffffffffffffffffffffffffff169050600082600501549050338360040160026101000a81548173ffffffffffffffffffffffffffffffffffffffff021916908373ffffffffffffffffffffffffffffffffffffffff160217905550348360050181905550600073ffffffffffffffffffffffffffffffffffffffff168273ffffffffffffffffffffffffffffffffffffffff1614610c2a5760008273ffffffffffffffffffffffffffffffffffffffff1682604051610ba29061224d565b60006040518083038185875af1925050503d8060008114610bdf576040519150601f19603f3d011682016040523d82523d6000602084013e610be4565b606091505b5050905080610c28576040517f08c379a0000000000000000000000000000000000000000000000000000000008152600401610c1f906122ae565b60405180910390fd5b505b7f0e54eff26401bf69b81b26f60bd85ef47f5d85275c1d268d84f68d6897431c47863334604051610c5d939291906122ce565b60405180910390a1505050505050565b6002602052806000526040600020600091509050806000015490806001018054610c9690611e45565b80601f0160208091040260200160405190810160405280929190818152602001828054610cc290611e45565b8015610d0f5780601f10610ce457610100808354040283529160200191610d0f565b820191906000526020600020905b815481529060010190602001808311610cf257829003601f168201915b505050505090806002018054610d2490611e45565b80601f0160208091040260200160405190810160405280929190818152602001828054610d5090611e45565b8015610d9d5780601f10610d7257610100808354040283529160200191610d9d565b820191906000526020600020905b815481529060010190602001808311610d8057829003601f168201915b5050505050908060030154908060040160009054906101000a900460ff16908060040160019054906101000a900460ff16908060040160029054906101000a900473ffffffffffffffffffffffffffffffffffffffff1690806005015490806006015490806007015490508a565b60008054906101000a900473ffffffffffffffffffffffffffffffffffffffff1673ffffffffffffffffffffffffffffffffffffffff163373ffffffffffffffffffffffffffffffffffffffff1614610e99576040517f08c379a0000000000000000000000000000000000000000000000000000000008152600401610e9090611ee8565b60405180910390fd5b806000600260008381526020019081526020016000206000015403610ef3576040517f08c379a0000000000000000000000000000000000000000000000000000000008152600401610eea90611df6565b60405180910390fd5b60006002600084815260200190815260200160002090508060040160019054906101000a900460ff1615610f5c576040517f08c379a0000000000000000000000000000000000000000000000000000000008152600401610f5390612351565b60405180910390fd5b60018160040160016101000a81548160ff02191690831515021790555060008160040160006101000a81548160ff0219169083151502179055506000816005015411156110765760008060009054906101000a900473ffffffffffffffffffffffffffffffffffffffff1673ffffffffffffffffffffffffffffffffffffffff168260050154604051610fee9061224d565b60006040518083038185875af1925050503d806000811461102b576040519150601f19603f3d011682016040523d82523d6000602084013e611030565b606091505b5050905080611074576040517f08c379a000000000000000000000000000000000000000000000000000000000815260040161106b906123bd565b60405180910390fd5b505b7fd2aa34a4fdbbc6dff6a3e56f46e0f3ae2a31d7785ff3487aa5c95c642acea501838260040160029054906101000a900473ffffffffffffffffffffffffffffffffffffffff1683600501546040516110d1939291906122ce565b60405180910390a1505050565b60008054906101000a900473ffffffffffffffffffffffffffffffffffffffff1673ffffffffffffffffffffffffffffffffffffffff163373ffffffffffffffffffffffffffffffffffffffff161461116c576040517f08c379a000000000000000000000000000000000000000000000000000000000815260040161116390611ee8565b60405180910390fd5b60008451116111b0576040517f08c379a00000000000000000000000000000000000000000000000000000000081526004016111a790612429565b60405180910390fd5b60008351116111f4576040517f08c379a00000000000000000000000000000000000000000000000000000000081526004016111eb90612495565b60405180910390fd5b60008211611237576040517f08c379a000000000000000000000000000000000000000000000000000000000815260040161122e90612527565b60405180910390fd5b6000811161127a576040517f08c379a000000000000000000000000000000000000000000000000000000000815260040161127190612593565b60405180910390fd5b6001600081548092919061128d906125b3565b91905055506040518061014001604052806001548152602001858152602001848152602001838152602001600115158152602001600015158152602001600073ffffffffffffffffffffffffffffffffffffffff168152602001600081526020014281526020018281525060026000600154815260200190815260200160002060008201518160000155602082015181600101908161132c91906127a7565b50604082015181600201908161134291906127a7565b506060820151816003015560808201518160040160006101000a81548160ff02191690831515021790555060a08201518160040160016101000a81548160ff02191690831515021790555060c08201518160040160026101000a81548173ffffffffffffffffffffffffffffffffffffffff021916908373ffffffffffffffffffffffffffffffffffffffff16021790555060e08201518160050155610100820151816006015561012082015181600701559050507f3ef0dde97fa0cc56206f591c9007c69a72f6c75af7e50510fc815b58bbb5434c60015460405161142891906119ec565b60405180910390a150505050565b60008054906101000a900473ffffffffffffffffffffffffffffffffffffffff1673ffffffffffffffffffffffffffffffffffffffff163373ffffffffffffffffffffffffffffffffffffffff16146114c4576040517f08c379a00000000000000000000000000000000000000000000000000000000081526004016114bb90611ee8565b60405180910390fd5b84600060026000838152602001908152602001600020600001540361151e576040517f08c379a000000000000000000000000000000000000000000000000000000000815260040161151590611df6565b60405180910390fd5b60006002600088815260200190815260200160002090508060040160019054906101000a900460ff1615611587576040517f08c379a000000000000000000000000000000000000000000000000000000000815260040161157e906128c5565b60405180910390fd5b8581600101908161159891906127a7565b50848160020190816115aa91906127a7565b508381600301819055508281600701819055507f8676a342c0b52367d28783c2a605b3c3f0b3e0d50a82fcb5433633fe77961a3b876040516115ec91906119ec565b60405180910390a150505050505050565b60008054906101000a900473ffffffffffffffffffffffffffffffffffffffff1681565b60405180610140016040528060008152602001606081526020016060815260200160008152602001600015158152602001600015158152602001600073ffffffffffffffffffffffffffffffffffffffff1681526020016000815260200160008152602001600081525090565b50805461169a90611e45565b6000825580601f106116ac57506116cb565b601f0160209004906000526020600020908101906116ca91906116ce565b5b50565b5b808211156116e75760008160009055506001016116cf565b5090565b600082825260208201905092915050565b7f53656e6420455448207573696e6720706c616365426964000000000000000000600082015250565b60006117326017836116eb565b915061173d826116fc565b602082019050919050565b6000602082019050818103600083015261176181611725565b9050919050565b6000604051905090565b600080fd5b600080fd5b6000819050919050565b61178f8161177c565b811461179a57600080fd5b50565b6000813590506117ac81611786565b92915050565b6000602082840312156117c8576117c7611772565b5b60006117d68482850161179d565b91505092915050565b6117e88161177c565b82525050565b600081519050919050565b600082825260208201905092915050565b60005b8381101561182857808201518184015260208101905061180d565b60008484015250505050565b6000601f19601f8301169050919050565b6000611850826117ee565b61185a81856117f9565b935061186a81856020860161180a565b61187381611834565b840191505092915050565b60008115159050919050565b6118938161187e565b82525050565b600073ffffffffffffffffffffffffffffffffffffffff82169050919050565b60006118c482611899565b9050919050565b6118d4816118b9565b82525050565b6000610140830160008301516118f360008601826117df565b506020830151848203602086015261190b8282611845565b915050604083015184820360408601526119258282611845565b915050606083015161193a60608601826117df565b50608083015161194d608086018261188a565b5060a083015161196060a086018261188a565b5060c083015161197360c08601826118cb565b5060e083015161198660e08601826117df565b5061010083015161199b6101008601826117df565b506101208301516119b06101208601826117df565b508091505092915050565b600060208201905081810360008301526119d581846118da565b905092915050565b6119e68161177c565b82525050565b6000602082019050611a0160008301846119dd565b92915050565b6000611a12826117ee565b611a1c81856116eb565b9350611a2c81856020860161180a565b611a3581611834565b840191505092915050565b611a498161187e565b82525050565b611a58816118b9565b82525050565b600061014082019050611a74600083018d6119dd565b8181036020830152611a86818c611a07565b90508181036040830152611a9a818b611a07565b9050611aa9606083018a6119dd565b611ab66080830189611a40565b611ac360a0830188611a40565b611ad060c0830187611a4f565b611add60e08301866119dd565b611aeb6101008301856119dd565b611af96101208301846119dd565b9b9a5050505050505050505050565b600080fd5b600080fd5b7f4e487b7100000000000000000000000000000000000000000000000000000000600052604160045260246000fd5b611b4a82611834565b810181811067ffffffffffffffff82111715611b6957611b68611b12565b5b80604052505050565b6000611b7c611768565b9050611b888282611b41565b919050565b600067ffffffffffffffff821115611ba857611ba7611b12565b5b611bb182611834565b9050602081019050919050565b82818337600083830152505050565b6000611be0611bdb84611b8d565b611b72565b905082815260208101848484011115611bfc57611bfb611b0d565b5b611c07848285611bbe565b509392505050565b600082601f830112611c2457611c23611b08565b5b8135611c34848260208601611bcd565b91505092915050565b60008060008060808587031215611c5757611c56611772565b5b600085013567ffffffffffffffff811115611c7557611c74611777565b5b611c8187828801611c0f565b945050602085013567ffffffffffffffff811115611ca257611ca1611777565b5b611cae87828801611c0f565b9350506040611cbf8782880161179d565b9250506060611cd08782880161179d565b91505092959194509250565b600080600080600060a08688031215611cf857611cf7611772565b5b6000611d068882890161179d565b955050602086013567ffffffffffffffff811115611d2757611d26611777565b5b611d3388828901611c0f565b945050604086013567ffffffffffffffff811115611d5457611d53611777565b5b611d6088828901611c0f565b9350506060611d718882890161179d565b9250506080611d828882890161179d565b9150509295509295909350565b6000602082019050611da46000830184611a4f565b92915050565b7f486f75736520646f6573206e6f74206578697374000000000000000000000000600082015250565b6000611de06014836116eb565b9150611deb82611daa565b602082019050919050565b60006020820190508181036000830152611e0f81611dd3565b9050919050565b7f4e487b7100000000000000000000000000000000000000000000000000000000600052602260045260246000fd5b60006002820490506001821680611e5d57607f821691505b602082108103611e7057611e6f611e16565b5b50919050565b7f4f6e6c792061646d696e2063616e2063616c6c20746869732066756e6374696f60008201527f6e00000000000000000000000000000000000000000000000000000000000000602082015250565b6000611ed26021836116eb565b9150611edd82611e76565b604082019050919050565b60006020820190508181036000830152611f0181611ec5565b9050919050565b7f43616e6e6f7420746f67676c6520656e6465642061756374696f6e0000000000600082015250565b6000611f3e601b836116eb565b9150611f4982611f08565b602082019050919050565b60006020820190508181036000830152611f6d81611f31565b9050919050565b6000604082019050611f8960008301856119dd565b611f966020830184611a40565b9392505050565b7f43616e6e6f742064656c65746520656e6465642061756374696f6e0000000000600082015250565b6000611fd3601b836116eb565b9150611fde82611f9d565b602082019050919050565b6000602082019050818103600083015261200281611fc6565b9050919050565b7f41756374696f6e206e6f74206163746976650000000000000000000000000000600082015250565b600061203f6012836116eb565b915061204a82612009565b602082019050919050565b6000602082019050818103600083015261206e81612032565b9050919050565b7f41756374696f6e20656e64656400000000000000000000000000000000000000600082015250565b60006120ab600d836116eb565b91506120b682612075565b602082019050919050565b600060208201905081810360008301526120da8161209e565b9050919050565b7f4e487b7100000000000000000000000000000000000000000000000000000000600052601160045260246000fd5b600061211b8261177c565b91506121268361177c565b925082820190508082111561213e5761213d6120e1565b5b92915050565b7f41756374696f6e2074696d652065787069726564000000000000000000000000600082015250565b600061217a6014836116eb565b915061218582612144565b602082019050919050565b600060208201905081810360008301526121a98161216d565b9050919050565b7f426964206d75737420626520686967686572207468616e2063757272656e7400600082015250565b60006121e6601f836116eb565b91506121f1826121b0565b602082019050919050565b60006020820190508181036000830152612215816121d9565b9050919050565b600081905092915050565b50565b600061223760008361221c565b915061224282612227565b600082019050919050565b60006122588261222a565b9150819050919050565b7f526566756e64206661696c656400000000000000000000000000000000000000600082015250565b6000612298600d836116eb565b91506122a382612262565b602082019050919050565b600060208201905081810360008301526122c78161228b565b9050919050565b60006060820190506122e360008301866119dd565b6122f06020830185611a4f565b6122fd60408301846119dd565b949350505050565b7f41756374696f6e20616c726561647920656e6465640000000000000000000000600082015250565b600061233b6015836116eb565b915061234682612305565b602082019050919050565b6000602082019050818103600083015261236a8161232e565b9050919050565b7f5472616e7366657220746f2061646d696e206661696c65640000000000000000600082015250565b60006123a76018836116eb565b91506123b282612371565b602082019050919050565b600060208201905081810360008301526123d68161239a565b9050919050565b7f5469746c652063616e6e6f7420626520656d7074790000000000000000000000600082015250565b60006124136015836116eb565b915061241e826123dd565b602082019050919050565b6000602082019050818103600083015261244281612406565b9050919050565b7f4465736372697074696f6e2063616e6e6f7420626520656d7074790000000000600082015250565b600061247f601b836116eb565b915061248a82612449565b602082019050919050565b600060208201905081810360008301526124ae81612472565b9050919050565b7f5374617274207072696365206d7573742062652067726561746572207468616e60008201527f2030000000000000000000000000000000000000000000000000000000000000602082015250565b60006125116022836116eb565b915061251c826124b5565b604082019050919050565b6000602082019050818103600083015261254081612504565b9050919050565b7f4475726174696f6e206d7573742062652067726561746572207468616e203000600082015250565b600061257d601f836116eb565b915061258882612547565b602082019050919050565b600060208201905081810360008301526125ac81612570565b9050919050565b60006125be8261177c565b91507fffffffffffffffffffffffffffffffffffffffffffffffffffffffffffffffff82036125f0576125ef6120e1565b5b600182019050919050565b60008190508160005260206000209050919050565b60006020601f8301049050919050565b600082821b905092915050565b60006008830261265d7fffffffffffffffffffffffffffffffffffffffffffffffffffffffffffffffff82612620565b6126678683612620565b95508019841693508086168417925050509392505050565b6000819050919050565b60006126a461269f61269a8461177c565b61267f565b61177c565b9050919050565b6000819050919050565b6126be83612689565b6126d26126ca826126ab565b84845461262d565b825550505050565b600090565b6126e76126da565b6126f28184846126b5565b505050565b5b818110156127165761270b6000826126df565b6001810190506126f8565b5050565b601f82111561275b5761272c816125fb565b61273584612610565b81016020851015612744578190505b61275861275085612610565b8301826126f7565b50505b505050565b600082821c905092915050565b600061277e60001984600802612760565b1980831691505092915050565b6000612797838361276d565b9150826002028217905092915050565b6127b0826117ee565b67ffffffffffffffff8111156127c9576127c8611b12565b5b6127d38254611e45565b6127de82828561271a565b600060209050601f83116001811461281157600084156127ff578287015190505b612809858261278b565b865550612871565b601f19841661281f866125fb565b60005b8281101561284757848901518255600182019150602085019450602081019050612822565b868310156128645784890151612860601f89168261276d565b8355505b6001600288020188555050505b505050505050565b7f43616e6e6f74206d6f6469667920656e6465642061756374696f6e0000000000600082015250565b60006128af601b836116eb565b91506128ba82612879565b602082019050919050565b600060208201905081810360008301526128de816128a2565b905091905056fea264697066735822122057846cb2bf2f9688d8f7fcf5db38c092100fac8cc1fb53c702cbec3a3255add864736f6c63430008140033",
    "linkReferences": {},
    "deployedLinkReferences": {}
}