{
  "_format": "hh-sol-artifact-1",
  "contractName": "HouseAuction",
  "sourceName": "contracts/HouseAuction.sol",
  "abi": [
    {
      "inputs": [],
      "stateMutability": "nonpayable",
      "type": "constructor"
    },
    {
      "anonymous": false,
      "inputs": [
        {
          "indexed": true,
          "internalType": "uint256",
          "name": "id",
          "type": "uint256"
        },
        {
          "indexed": false,
          "internalType": "address",
          "name": "winner",
          "type": "address"
        },
        {
          "indexed": false,
          "internalType": "uint256",
          "name": "amount",
          "type": "uint256"
        }
      ],
      "name": "AuctionEnded",
      "type": "event"
    },
    {
      "anonymous": false,
      "inputs": [
        {
          "indexed": true,
          "internalType": "uint256",
          "name": "id",
          "type": "uint256"
        }
      ],
      "name": "AuctionStarted",
      "type": "event"
    },
    {
      "anonymous": false,
      "inputs": [
        {
          "indexed": true,
          "internalType": "uint256",
          "name": "id",
          "type": "uint256"
        },
        {
          "indexed": false,
          "internalType": "address",
          "name": "bidder",
          "type": "address"
        },
        {
          "indexed": false,
          "internalType": "uint256",
          "name": "amount",
          "type": "uint256"
        }
      ],
      "name": "BidPlaced",
      "type": "event"
    },
    {
      "anonymous": false,
      "inputs": [
        {
          "indexed": true,
          "internalType": "uint256",
          "name": "id",
          "type": "uint256"
        },
        {
          "indexed": false,
          "internalType": "string",
          "name": "title",
          "type": "string"
        }
      ],
      "name": "HouseAdded",
      "type": "event"
    },
    {
      "anonymous": false,
      "inputs": [
        {
          "indexed": true,
          "internalType": "uint256",
          "name": "id",
          "type": "uint256"
        }
      ],
      "name": "HouseDeleted",
      "type": "event"
    },
    {
      "anonymous": false,
      "inputs": [
        {
          "indexed": true,
          "internalType": "uint256",
          "name": "id",
          "type": "uint256"
        }
      ],
      "name": "HouseUpdated",
      "type": "event"
    },
    {
      "inputs": [
        {
          "internalType": "string",
          "name": "_title",
          "type": "string"
        },
        {
          "internalType": "string",
          "name": "_description",
          "type": "string"
        },
        {
          "internalType": "string",
          "name": "_imageHash",
          "type": "string"
        },
        {
          "internalType": "uint256",
          "name": "_startPrice",
          "type": "uint256"
        }
      ],
      "name": "addHouse",
      "outputs": [],
      "stateMutability": "nonpayable",
      "type": "function"
    },
    {
      "inputs": [],
      "name": "admin",
      "outputs": [
        {
          "internalType": "address",
          "name": "",
          "type": "address"
        }
      ],
      "stateMutability": "view",
      "type": "function"
    },
    {
      "inputs": [
        {
          "internalType": "uint256",
          "name": "",
          "type": "uint256"
        },
        {
          "internalType": "uint256",
          "name": "",
          "type": "uint256"
        }
      ],
      "name": "bidHistory",
      "outputs": [
        {
          "internalType": "address",
          "name": "bidder",
          "type": "address"
        },
        {
          "internalType": "uint256",
          "name": "amount",
          "type": "uint256"
        },
        {
          "internalType": "uint256",
          "name": "timestamp",
          "type": "uint256"
        }
      ],
      "stateMutability": "view",
      "type": "function"
    },
    {
      "inputs": [
        {
          "internalType": "uint256",
          "name": "_id",
          "type": "uint256"
        }
      ],
      "name": "deleteHouse",
      "outputs": [],
      "stateMutability": "nonpayable",
      "type": "function"
    },
    {
      "inputs": [
        {
          "internalType": "uint256",
          "name": "_id",
          "type": "uint256"
        }
      ],
      "name": "endAuction",
      "outputs": [],
      "stateMutability": "nonpayable",
      "type": "function"
    },
    {
      "inputs": [
        {
          "internalType": "uint256",
          "name": "_id",
          "type": "uint256"
        },
        {
          "internalType": "uint256",
          "name": "_index",
          "type": "uint256"
        }
      ],
      "name": "getBid",
      "outputs": [
        {
          "internalType": "address",
          "name": "bidder",
          "type": "address"
        },
        {
          "internalType": "uint256",
          "name": "amount",
          "type": "uint256"
        },
        {
          "internalType": "uint256",
          "name": "timestamp",
          "type": "uint256"
        }
      ],
      "stateMutability": "view",
      "type": "function"
    },
    {
      "inputs": [
        {
          "internalType": "uint256",
          "name": "_id",
          "type": "uint256"
        }
      ],
      "name": "getBidCount",
      "outputs": [
        {
          "internalType": "uint256",
          "name": "",
          "type": "uint256"
        }
      ],
      "stateMutability": "view",
      "type": "function"
    },
    {
      "inputs": [
        {
          "internalType": "uint256",
          "name": "_id",
          "type": "uint256"
        }
      ],
      "name": "getBidHistory",
      "outputs": [
        {
          "components": [
            {
              "internalType": "address",
              "name": "bidder",
              "type": "address"
            },
            {
              "internalType": "uint256",
              "name": "amount",
              "type": "uint256"
            },
            {
              "internalType": "uint256",
              "name": "timestamp",
              "type": "uint256"
            }
          ],
          "internalType": "struct HouseAuction.Bid[]",
          "name": "",
          "type": "tuple[]"
        }
      ],
      "stateMutability": "view",
      "type": "function"
    },
    {
      "inputs": [
        {
          "internalType": "uint256",
          "name": "_id",
          "type": "uint256"
        }
      ],
      "name": "getHouse",
      "outputs": [
        {
          "internalType": "uint256",
          "name": "id",
          "type": "uint256"
        },
        {
          "internalType": "string",
          "name": "title",
          "type": "string"
        },
        {
          "internalType": "string",
          "name": "description",
          "type": "string"
        },
        {
          "internalType": "string",
          "name": "imageHash",
          "type": "string"
        },
        {
          "internalType": "uint256",
          "name": "startPrice",
          "type": "uint256"
        },
        {
          "internalType": "address",
          "name": "highestBidder",
          "type": "address"
        },
        {
          "internalType": "uint256",
          "name": "highestBid",
          "type": "uint256"
        },
        {
          "internalType": "bool",
          "name": "isActive",
          "type": "bool"
        },
        {
          "internalType": "bool",
          "name": "isStarted",
          "type": "bool"
        },
        {
          "internalType": "bool",
          "name": "isAuctionEnded",
          "type": "bool"
        }
      ],
      "stateMutability": "view",
      "type": "function"
    },
    {
      "inputs": [],
      "name": "houseCounter",
      "outputs": [
        {
          "internalType": "uint256",
          "name": "",
          "type": "uint256"
        }
      ],
      "stateMutability": "view",
      "type": "function"
    },
    {
      "inputs": [
        {
          "internalType": "uint256",
          "name": "",
          "type": "uint256"
        }
      ],
      "name": "houses",
      "outputs": [
        {
          "internalType": "uint256",
          "name": "id",
          "type": "uint256"
        },
        {
          "internalType": "string",
          "name": "title",
          "type": "string"
        },
        {
          "internalType": "string",
          "name": "description",
          "type": "string"
        },
        {
          "internalType": "string",
          "name": "imageHash",
          "type": "string"
        },
        {
          "internalType": "uint256",
          "name": "startPrice",
          "type": "uint256"
        },
        {
          "internalType": "address",
          "name": "highestBidder",
          "type": "address"
        },
        {
          "internalType": "uint256",
          "name": "highestBid",
          "type": "uint256"
        },
        {
          "internalType": "bool",
          "name": "isActive",
          "type": "bool"
        },
        {
          "internalType": "bool",
          "name": "isStarted",
          "type": "bool"
        },
        {
          "internalType": "bool",
          "name": "isAuctionEnded",
          "type": "bool"
        }
      ],
      "stateMutability": "view",
      "type": "function"
    },
    {
      "inputs": [
        {
          "internalType": "uint256",
          "name": "_id",
          "type": "uint256"
        }
      ],
      "name": "placeBid",
      "outputs": [],
      "stateMutability": "payable",
      "type": "function"
    },
    {
      "inputs": [
        {
          "internalType": "uint256",
          "name": "_id",
          "type": "uint256"
        }
      ],
      "name": "startAuction",
      "outputs": [],
      "stateMutability": "nonpayable",
      "type": "function"
    },
    {
      "inputs": [
        {
          "internalType": "uint256",
          "name": "_id",
          "type": "uint256"
        }
      ],
      "name": "toggleAuctionStatus",
      "outputs": [],
      "stateMutability": "nonpayable",
      "type": "function"
    },
    {
      "inputs": [
        {
          "internalType": "uint256",
          "name": "_id",
          "type": "uint256"
        },
        {
          "internalType": "string",
          "name": "_title",
          "type": "string"
        },
        {
          "internalType": "string",
          "name": "_description",
          "type": "string"
        },
        {
          "internalType": "string",
          "name": "_imageHash",
          "type": "string"
        },
        {
          "internalType": "uint256",
          "name": "_startPrice",
          "type": "uint256"
        }
      ],
      "name": "updateHouse",
      "outputs": [],
      "stateMutability": "nonpayable",
      "type": "function"
    }
  ],
  "bytecode": "0x608060405234801561001057600080fd5b50336000806101000a81548173ffffffffffffffffffffffffffffffffffffffff021916908373ffffffffffffffffffffffffffffffffffffffff160217905550612b76806100606000396000f3fe6080604052600436106100e85760003560e01c8063744d34111161008a578063aeda852f11610059578063aeda852f14610302578063b9a2de3a14610348578063c0738dce14610371578063f851a440146103ae576100e8565b8063744d3411146102575780637627dc10146102945780639979ef45146102bd57806399da5e68146102d9576100e8565b80634c9b56fd116100c65780634c9b56fd14610185578063582c7ffd146101ae57806361ab546e146101ed5780636d3310471461022c576100e8565b8063065de74c146100ed5780633107c99d146101165780633fc1514f1461015c575b600080fd5b3480156100f957600080fd5b50610114600480360381019061010f9190611c51565b6103d9565b005b34801561012257600080fd5b5061013d60048036038101906101389190611c51565b6105c0565b6040516101539a99989796959493929190611d79565b60405180910390f35b34801561016857600080fd5b50610183600480360381019061017e9190611c51565b610915565b005b34801561019157600080fd5b506101ac60048036038101906101a79190611c51565b610a3d565b005b3480156101ba57600080fd5b506101d560048036038101906101d09190611e2a565b610c2c565b6040516101e493929190611e6a565b60405180910390f35b3480156101f957600080fd5b50610214600480360381019061020f9190611e2a565b610da3565b60405161022393929190611e6a565b60405180910390f35b34801561023857600080fd5b50610241610e0a565b60405161024e9190611ea1565b60405180910390f35b34801561026357600080fd5b5061027e60048036038101906102799190611c51565b610e10565b60405161028b9190611ea1565b60405180910390f35b3480156102a057600080fd5b506102bb60048036038101906102b69190611ff1565b610e81565b005b6102d760048036038101906102d29190611c51565b610feb565b005b3480156102e557600080fd5b5061030060048036038101906102fb91906120c0565b611328565b005b34801561030e57600080fd5b5061032960048036038101906103249190611c51565b611598565b60405161033f9a99989796959493929190611d79565b60405180910390f35b34801561035457600080fd5b5061036f600480360381019061036a9190611c51565b6117cb565b005b34801561037d57600080fd5b5061039860048036038101906103939190611c51565b6119e7565b6040516103a5919061228a565b60405180910390f35b3480156103ba57600080fd5b506103c3611b14565b6040516103d091906122ac565b60405180910390f35b60008054906101000a900473ffffffffffffffffffffffffffffffffffffffff1673ffffffffffffffffffffffffffffffffffffffff163373ffffffffffffffffffffffffffffffffffffffff1614610467576040517f08c379a000000000000000000000000000000000000000000000000000000000815260040161045e90612339565b60405180910390fd5b60015481111580156104795750600081115b6104b8576040517f08c379a00000000000000000000000000000000000000000000000000000000081526004016104af906123a5565b60405180910390fd5b60006002600083815260200190815260200160002090508060070160009054906101000a900460ff16610520576040517f08c379a000000000000000000000000000000000000000000000000000000000815260040161051790612411565b60405180910390fd5b8060070160019054906101000a900460ff1615610572576040517f08c379a00000000000000000000000000000000000000000000000000000000081526004016105699061247d565b60405180910390fd5b60018160070160016101000a81548160ff021916908315150217905550817f1bb96dff6ab5005aff98cdc0cf176bb7d8e0423cb48e02217d35b042cec81e9f60405160405180910390a25050565b600060608060606000806000806000806001548b111580156105e2575060008b115b610621576040517f08c379a0000000000000000000000000000000000000000000000000000000008152600401610618906123a5565b60405180910390fd5b6000600260008d8152602001908152602001600020604051806101400160405290816000820154815260200160018201805461065c906124cc565b80601f0160208091040260200160405190810160405280929190818152602001828054610688906124cc565b80156106d55780601f106106aa576101008083540402835291602001916106d5565b820191906000526020600020905b8154815290600101906020018083116106b857829003601f168201915b505050505081526020016002820180546106ee906124cc565b80601f016020809104026020016040519081016040528092919081815260200182805461071a906124cc565b80156107675780601f1061073c57610100808354040283529160200191610767565b820191906000526020600020905b81548152906001019060200180831161074a57829003601f168201915b50505050508152602001600382018054610780906124cc565b80601f01602080910402602001604051908101604052809291908181526020018280546107ac906124cc565b80156107f95780601f106107ce576101008083540402835291602001916107f9565b820191906000526020600020905b8154815290600101906020018083116107dc57829003601f168201915b50505050508152602001600482015481526020016005820160009054906101000a900473ffffffffffffffffffffffffffffffffffffffff1673ffffffffffffffffffffffffffffffffffffffff1673ffffffffffffffffffffffffffffffffffffffff168152602001600682015481526020016007820160009054906101000a900460ff161515151581526020016007820160019054906101000a900460ff161515151581526020016007820160029054906101000a900460ff1615151515815250509050806000015181602001518260400151836060015184608001518560a001518660c001518760e001518861010001518961012001519a509a509a509a509a509a509a509a509a509a50509193959799509193959799565b60008054906101000a900473ffffffffffffffffffffffffffffffffffffffff1673ffffffffffffffffffffffffffffffffffffffff163373ffffffffffffffffffffffffffffffffffffffff16146109a3576040517f08c379a000000000000000000000000000000000000000000000000000000000815260040161099a90612339565b60405180910390fd5b60015481111580156109b55750600081115b6109f4576040517f08c379a00000000000000000000000000000000000000000000000000000000081526004016109eb906123a5565b60405180910390fd5b60006002600083815260200190815260200160002090508060070160009054906101000a900460ff16158160070160006101000a81548160ff0219169083151502179055505050565b60008054906101000a900473ffffffffffffffffffffffffffffffffffffffff1673ffffffffffffffffffffffffffffffffffffffff163373ffffffffffffffffffffffffffffffffffffffff1614610acb576040517f08c379a0000000000000000000000000000000000000000000000000000000008152600401610ac290612339565b60405180910390fd5b6001548111158015610add5750600081115b610b1c576040517f08c379a0000000000000000000000000000000000000000000000000000000008152600401610b13906123a5565b60405180910390fd5b60026000828152602001908152602001600020600080820160009055600182016000610b489190611b38565b600282016000610b589190611b38565b600382016000610b689190611b38565b60048201600090556005820160006101000a81549073ffffffffffffffffffffffffffffffffffffffff021916905560068201600090556007820160006101000a81549060ff02191690556007820160016101000a81549060ff02191690556007820160026101000a81549060ff02191690555050600360008281526020019081526020016000206000610bfc9190611b78565b807f42d6bd8582ff4903adffffb6b80e9c2e797491805128ba3536d7af7fac259e0560405160405180910390a250565b60008060006001548511158015610c435750600085115b610c82576040517f08c379a0000000000000000000000000000000000000000000000000000000008152600401610c79906123a5565b60405180910390fd5b60036000868152602001908152602001600020805490508410610cda576040517f08c379a0000000000000000000000000000000000000000000000000000000008152600401610cd190612549565b60405180910390fd5b6000600360008781526020019081526020016000208581548110610d0157610d00612569565b5b90600052602060002090600302016040518060600160405290816000820160009054906101000a900473ffffffffffffffffffffffffffffffffffffffff1673ffffffffffffffffffffffffffffffffffffffff1673ffffffffffffffffffffffffffffffffffffffff168152602001600182015481526020016002820154815250509050806000015181602001518260400151935093509350509250925092565b60036020528160005260406000208181548110610dbf57600080fd5b9060005260206000209060030201600091509150508060000160009054906101000a900473ffffffffffffffffffffffffffffffffffffffff16908060010154908060020154905083565b60015481565b60006001548211158015610e245750600082115b610e63576040517f08c379a0000000000000000000000000000000000000000000000000000000008152600401610e5a906123a5565b60405180910390fd5b60036000838152602001908152602001600020805490509050919050565b60008054906101000a900473ffffffffffffffffffffffffffffffffffffffff1673ffffffffffffffffffffffffffffffffffffffff163373ffffffffffffffffffffffffffffffffffffffff1614610f0f576040517f08c379a0000000000000000000000000000000000000000000000000000000008152600401610f0690612339565b60405180910390fd5b6001548511158015610f215750600085115b610f60576040517f08c379a0000000000000000000000000000000000000000000000000000000008152600401610f57906123a5565b60405180910390fd5b600060026000878152602001908152602001600020905084816001019081610f889190612744565b5083816002019081610f9a9190612744565b5082816003019081610fac9190612744565b50818160040181905550857f8676a342c0b52367d28783c2a605b3c3f0b3e0d50a82fcb5433633fe77961a3b60405160405180910390a2505050505050565b6001548111158015610ffd5750600081115b61103c576040517f08c379a0000000000000000000000000000000000000000000000000000000008152600401611033906123a5565b60405180910390fd5b60006002600083815260200190815260200160002090508060070160009054906101000a900460ff166110a4576040517f08c379a000000000000000000000000000000000000000000000000000000000815260040161109b90612411565b60405180910390fd5b8060070160019054906101000a900460ff166110f5576040517f08c379a00000000000000000000000000000000000000000000000000000000081526004016110ec90612862565b60405180910390fd5b8060070160029054906101000a900460ff1615611147576040517f08c379a000000000000000000000000000000000000000000000000000000000815260040161113e906128ce565b60405180910390fd5b8060060154341161118d576040517f08c379a000000000000000000000000000000000000000000000000000000000815260040161118490612960565b60405180910390fd5b80600401543410156111d4576040517f08c379a00000000000000000000000000000000000000000000000000000000081526004016111cb906129f2565b60405180910390fd5b6003600083815260200190815260200160002060405180606001604052803373ffffffffffffffffffffffffffffffffffffffff16815260200134815260200142815250908060018154018082558091505060019003906000526020600020906003020160009091909190915060008201518160000160006101000a81548173ffffffffffffffffffffffffffffffffffffffff021916908373ffffffffffffffffffffffffffffffffffffffff16021790555060208201518160010155604082015181600201555050338160050160006101000a81548173ffffffffffffffffffffffffffffffffffffffff021916908373ffffffffffffffffffffffffffffffffffffffff160217905550348160060181905550817f0e54eff26401bf69b81b26f60bd85ef47f5d85275c1d268d84f68d6897431c47333460405161131c929190612a12565b60405180910390a25050565b60008054906101000a900473ffffffffffffffffffffffffffffffffffffffff1673ffffffffffffffffffffffffffffffffffffffff163373ffffffffffffffffffffffffffffffffffffffff16146113b6576040517f08c379a00000000000000000000000000000000000000000000000000000000081526004016113ad90612339565b60405180910390fd5b600160008154809291906113c990612a6a565b91905055506040518061014001604052806001548152602001858152602001848152602001838152602001828152602001600073ffffffffffffffffffffffffffffffffffffffff168152602001600081526020016001151581526020016000151581526020016000151581525060026000600154815260200190815260200160002060008201518160000155602082015181600101908161146b9190612744565b5060408201518160020190816114819190612744565b5060608201518160030190816114979190612744565b506080820151816004015560a08201518160050160006101000a81548173ffffffffffffffffffffffffffffffffffffffff021916908373ffffffffffffffffffffffffffffffffffffffff16021790555060c0820151816006015560e08201518160070160006101000a81548160ff0219169083151502179055506101008201518160070160016101000a81548160ff0219169083151502179055506101208201518160070160026101000a81548160ff0219169083151502179055509050506001547f8d24c5680baa50c75c98bf2104f1caa0df5ed02026f4feaf8eafd349f471205f8560405161158a9190612ab2565b60405180910390a250505050565b60026020528060005260406000206000915090508060000154908060010180546115c1906124cc565b80601f01602080910402602001604051908101604052809291908181526020018280546115ed906124cc565b801561163a5780601f1061160f5761010080835404028352916020019161163a565b820191906000526020600020905b81548152906001019060200180831161161d57829003601f168201915b50505050509080600201805461164f906124cc565b80601f016020809104026020016040519081016040528092919081815260200182805461167b906124cc565b80156116c85780601f1061169d576101008083540402835291602001916116c8565b820191906000526020600020905b8154815290600101906020018083116116ab57829003601f168201915b5050505050908060030180546116dd906124cc565b80601f0160208091040260200160405190810160405280929190818152602001828054611709906124cc565b80156117565780601f1061172b57610100808354040283529160200191611756565b820191906000526020600020905b81548152906001019060200180831161173957829003601f168201915b5050505050908060040154908060050160009054906101000a900473ffffffffffffffffffffffffffffffffffffffff16908060060154908060070160009054906101000a900460ff16908060070160019054906101000a900460ff16908060070160029054906101000a900460ff1690508a565b60008054906101000a900473ffffffffffffffffffffffffffffffffffffffff1673ffffffffffffffffffffffffffffffffffffffff163373ffffffffffffffffffffffffffffffffffffffff1614611859576040517f08c379a000000000000000000000000000000000000000000000000000000000815260040161185090612339565b60405180910390fd5b600154811115801561186b5750600081115b6118aa576040517f08c379a00000000000000000000000000000000000000000000000000000000081526004016118a1906123a5565b60405180910390fd5b60006002600083815260200190815260200160002090508060070160019054906101000a900460ff16611912576040517f08c379a000000000000000000000000000000000000000000000000000000000815260040161190990612862565b60405180910390fd5b8060070160029054906101000a900460ff1615611964576040517f08c379a000000000000000000000000000000000000000000000000000000000815260040161195b90612b20565b60405180910390fd5b60018160070160026101000a81548160ff021916908315150217905550817fd2aa34a4fdbbc6dff6a3e56f46e0f3ae2a31d7785ff3487aa5c95c642acea5018260050160009054906101000a900473ffffffffffffffffffffffffffffffffffffffff1683600601546040516119db929190612a12565b60405180910390a25050565b606060015482111580156119fb5750600082115b611a3a576040517f08c379a0000000000000000000000000000000000000000000000000000000008152600401611a31906123a5565b60405180910390fd5b60036000838152602001908152602001600020805480602002602001604051908101604052809291908181526020016000905b82821015611b0957838290600052602060002090600302016040518060600160405290816000820160009054906101000a900473ffffffffffffffffffffffffffffffffffffffff1673ffffffffffffffffffffffffffffffffffffffff1673ffffffffffffffffffffffffffffffffffffffff1681526020016001820154815260200160028201548152505081526020019060010190611a6d565b505050509050919050565b60008054906101000a900473ffffffffffffffffffffffffffffffffffffffff1681565b508054611b44906124cc565b6000825580601f10611b565750611b75565b601f016020900490600052602060002090810190611b749190611b9c565b5b50565b5080546000825560030290600052602060002090810190611b999190611bb9565b50565b5b80821115611bb5576000816000905550600101611b9d565b5090565b5b80821115611c0357600080820160006101000a81549073ffffffffffffffffffffffffffffffffffffffff02191690556001820160009055600282016000905550600301611bba565b5090565b6000604051905090565b600080fd5b600080fd5b6000819050919050565b611c2e81611c1b565b8114611c3957600080fd5b50565b600081359050611c4b81611c25565b92915050565b600060208284031215611c6757611c66611c11565b5b6000611c7584828501611c3c565b91505092915050565b611c8781611c1b565b82525050565b600081519050919050565b600082825260208201905092915050565b60005b83811015611cc7578082015181840152602081019050611cac565b60008484015250505050565b6000601f19601f8301169050919050565b6000611cef82611c8d565b611cf98185611c98565b9350611d09818560208601611ca9565b611d1281611cd3565b840191505092915050565b600073ffffffffffffffffffffffffffffffffffffffff82169050919050565b6000611d4882611d1d565b9050919050565b611d5881611d3d565b82525050565b60008115159050919050565b611d7381611d5e565b82525050565b600061014082019050611d8f600083018d611c7e565b8181036020830152611da1818c611ce4565b90508181036040830152611db5818b611ce4565b90508181036060830152611dc9818a611ce4565b9050611dd86080830189611c7e565b611de560a0830188611d4f565b611df260c0830187611c7e565b611dff60e0830186611d6a565b611e0d610100830185611d6a565b611e1b610120830184611d6a565b9b9a5050505050505050505050565b60008060408385031215611e4157611e40611c11565b5b6000611e4f85828601611c3c565b9250506020611e6085828601611c3c565b9150509250929050565b6000606082019050611e7f6000830186611d4f565b611e8c6020830185611c7e565b611e996040830184611c7e565b949350505050565b6000602082019050611eb66000830184611c7e565b92915050565b600080fd5b600080fd5b7f4e487b7100000000000000000000000000000000000000000000000000000000600052604160045260246000fd5b611efe82611cd3565b810181811067ffffffffffffffff82111715611f1d57611f1c611ec6565b5b80604052505050565b6000611f30611c07565b9050611f3c8282611ef5565b919050565b600067ffffffffffffffff821115611f5c57611f5b611ec6565b5b611f6582611cd3565b9050602081019050919050565b82818337600083830152505050565b6000611f94611f8f84611f41565b611f26565b905082815260208101848484011115611fb057611faf611ec1565b5b611fbb848285611f72565b509392505050565b600082601f830112611fd857611fd7611ebc565b5b8135611fe8848260208601611f81565b91505092915050565b600080600080600060a0868803121561200d5761200c611c11565b5b600061201b88828901611c3c565b955050602086013567ffffffffffffffff81111561203c5761203b611c16565b5b61204888828901611fc3565b945050604086013567ffffffffffffffff81111561206957612068611c16565b5b61207588828901611fc3565b935050606086013567ffffffffffffffff81111561209657612095611c16565b5b6120a288828901611fc3565b92505060806120b388828901611c3c565b9150509295509295909350565b600080600080608085870312156120da576120d9611c11565b5b600085013567ffffffffffffffff8111156120f8576120f7611c16565b5b61210487828801611fc3565b945050602085013567ffffffffffffffff81111561212557612124611c16565b5b61213187828801611fc3565b935050604085013567ffffffffffffffff81111561215257612151611c16565b5b61215e87828801611fc3565b925050606061216f87828801611c3c565b91505092959194509250565b600081519050919050565b600082825260208201905092915050565b6000819050602082019050919050565b6121b081611d3d565b82525050565b6121bf81611c1b565b82525050565b6060820160008201516121db60008501826121a7565b5060208201516121ee60208501826121b6565b50604082015161220160408501826121b6565b50505050565b600061221383836121c5565b60608301905092915050565b6000602082019050919050565b60006122378261217b565b6122418185612186565b935061224c83612197565b8060005b8381101561227d5781516122648882612207565b975061226f8361221f565b925050600181019050612250565b5085935050505092915050565b600060208201905081810360008301526122a4818461222c565b905092915050565b60006020820190506122c16000830184611d4f565b92915050565b7f4f6e6c792061646d696e2063616e20706572666f726d2074686973206163746960008201527f6f6e000000000000000000000000000000000000000000000000000000000000602082015250565b6000612323602283611c98565b915061232e826122c7565b604082019050919050565b6000602082019050818103600083015261235281612316565b9050919050565b7f496e76616c696420686f75736520494400000000000000000000000000000000600082015250565b600061238f601083611c98565b915061239a82612359565b602082019050919050565b600060208201905081810360008301526123be81612382565b9050919050565b7f486f757365206973206e6f742061637469766500000000000000000000000000600082015250565b60006123fb601383611c98565b9150612406826123c5565b602082019050919050565b6000602082019050818103600083015261242a816123ee565b9050919050565b7f41756374696f6e20616c72656164792073746172746564000000000000000000600082015250565b6000612467601783611c98565b915061247282612431565b602082019050919050565b600060208201905081810360008301526124968161245a565b9050919050565b7f4e487b7100000000000000000000000000000000000000000000000000000000600052602260045260246000fd5b600060028204905060018216806124e457607f821691505b6020821081036124f7576124f661249d565b5b50919050565b7f496e76616c69642062696420696e646578000000000000000000000000000000600082015250565b6000612533601183611c98565b915061253e826124fd565b602082019050919050565b6000602082019050818103600083015261256281612526565b9050919050565b7f4e487b7100000000000000000000000000000000000000000000000000000000600052603260045260246000fd5b60008190508160005260206000209050919050565b60006020601f8301049050919050565b600082821b905092915050565b6000600883026125fa7fffffffffffffffffffffffffffffffffffffffffffffffffffffffffffffffff826125bd565b61260486836125bd565b95508019841693508086168417925050509392505050565b6000819050919050565b600061264161263c61263784611c1b565b61261c565b611c1b565b9050919050565b6000819050919050565b61265b83612626565b61266f61266782612648565b8484546125ca565b825550505050565b600090565b612684612677565b61268f818484612652565b505050565b5b818110156126b3576126a860008261267c565b600181019050612695565b5050565b601f8211156126f8576126c981612598565b6126d2846125ad565b810160208510156126e1578190505b6126f56126ed856125ad565b830182612694565b50505b505050565b600082821c905092915050565b600061271b600019846008026126fd565b1980831691505092915050565b6000612734838361270a565b9150826002028217905092915050565b61274d82611c8d565b67ffffffffffffffff81111561276657612765611ec6565b5b61277082546124cc565b61277b8282856126b7565b600060209050601f8311600181146127ae576000841561279c578287015190505b6127a68582612728565b86555061280e565b601f1984166127bc86612598565b60005b828110156127e4578489015182556001820191506020850194506020810190506127bf565b8683101561280157848901516127fd601f89168261270a565b8355505b6001600288020188555050505b505050505050565b7f41756374696f6e206e6f74207374617274656400000000000000000000000000600082015250565b600061284c601383611c98565b915061285782612816565b602082019050919050565b6000602082019050818103600083015261287b8161283f565b9050919050565b7f41756374696f6e20656e64656400000000000000000000000000000000000000600082015250565b60006128b8600d83611c98565b91506128c382612882565b602082019050919050565b600060208201905081810360008301526128e7816128ab565b9050919050565b7f426964206d75737420626520686967686572207468616e2063757272656e742060008201527f6269640000000000000000000000000000000000000000000000000000000000602082015250565b600061294a602383611c98565b9150612955826128ee565b604082019050919050565b600060208201905081810360008301526129798161293d565b9050919050565b7f426964206d757374206265206174206c65617374207374617274696e6720707260008201527f6963650000000000000000000000000000000000000000000000000000000000602082015250565b60006129dc602383611c98565b91506129e782612980565b604082019050919050565b60006020820190508181036000830152612a0b816129cf565b9050919050565b6000604082019050612a276000830185611d4f565b612a346020830184611c7e565b9392505050565b7f4e487b7100000000000000000000000000000000000000000000000000000000600052601160045260246000fd5b6000612a7582611c1b565b91507fffffffffffffffffffffffffffffffffffffffffffffffffffffffffffffffff8203612aa757612aa6612a3b565b5b600182019050919050565b60006020820190508181036000830152612acc8184611ce4565b905092915050565b7f41756374696f6e20616c726561647920656e6465640000000000000000000000600082015250565b6000612b0a601583611c98565b9150612b1582612ad4565b602082019050919050565b60006020820190508181036000830152612b3981612afd565b905091905056fea2646970667358221220383bf2a4737bba6e3e555ebbb8b509ba32214c1ccbbb03c704968c86e3c2b2fe64736f6c63430008140033",
  "linkReferences": {},
  "deployedLinkReferences": {}
}